{
  "contractName": "StorageCAD",
  "abi": [
    {
      "inputs": [],
      "stateMutability": "nonpayable",
      "type": "constructor"
    },
    {
      "inputs": [],
      "name": "owner",
      "outputs": [
        {
          "internalType": "address",
          "name": "",
          "type": "address"
        }
      ],
      "stateMutability": "view",
      "type": "function",
      "constant": true
    },
    {
      "inputs": [
        {
          "internalType": "string",
          "name": "_hashCAD",
          "type": "string"
        },
        {
          "internalType": "address",
          "name": "_owner",
          "type": "address"
        }
      ],
      "name": "registerCAD",
      "outputs": [],
      "stateMutability": "nonpayable",
      "type": "function"
    },
    {
      "inputs": [
        {
          "internalType": "string",
          "name": "_hashCAD",
          "type": "string"
        }
      ],
      "name": "validateCAD",
      "outputs": [
        {
          "internalType": "bool",
          "name": "",
          "type": "bool"
        }
      ],
      "stateMutability": "view",
      "type": "function",
      "constant": true
    },
    {
      "inputs": [
        {
          "internalType": "string",
          "name": "_hashCAD",
          "type": "string"
        }
      ],
      "name": "findHash",
      "outputs": [
        {
          "internalType": "bool",
          "name": "",
          "type": "bool"
        }
      ],
      "stateMutability": "view",
      "type": "function",
      "constant": true
    },
    {
      "inputs": [
        {
          "internalType": "string",
          "name": "_hashCAD",
          "type": "string"
        }
      ],
      "name": "readCAD",
      "outputs": [
        {
          "internalType": "string",
          "name": "",
          "type": "string"
        }
      ],
      "stateMutability": "view",
      "type": "function",
      "constant": true
    },
    {
      "inputs": [
        {
          "internalType": "string",
          "name": "_hashCAD",
          "type": "string"
        }
      ],
      "name": "updateCAD",
      "outputs": [],
      "stateMutability": "nonpayable",
      "type": "function"
    },
    {
      "inputs": [
        {
          "internalType": "string",
          "name": "_hashCAD",
          "type": "string"
        }
      ],
      "name": "deleteCAD",
      "outputs": [],
      "stateMutability": "nonpayable",
      "type": "function"
    },
    {
      "inputs": [],
      "name": "numbersCADs",
      "outputs": [
        {
          "internalType": "uint256",
          "name": "",
          "type": "uint256"
        }
      ],
      "stateMutability": "view",
      "type": "function",
      "constant": true
    }
  ],
  "bytecode": "0x608060405234801561001057600080fd5b50600080546001600160a01b03191633179055610a24806100326000396000f3fe608060405234801561001057600080fd5b50600436106100885760003560e01c8063953de83d1161005b578063953de83d14610108578063a66edd271461011b578063bf182d621461012e578063cfa069f81461014e57600080fd5b80631a4580ba1461008d57806363e5acdd146100b557806370c75107146100ca5780638da5cb5b146100dd575b600080fd5b6100a061009b3660046107be565b61015f565b60405190151581526020015b60405180910390f35b6100c86100c33660046107be565b610201565b005b6100a06100d83660046107be565b610244565b6000546100f0906001600160a01b031681565b6040516001600160a01b0390911681526020016100ac565b6100c86101163660046107be565b6102dd565b6100c86101293660046107fb565b610317565b61014161013c3660046107be565b61048e565b6040516100ac9190610889565b6002546040519081526020016100ac565b6000805b6002548110156101f8578260405160200161017e91906108bc565b60405160208183030381529060405280519060200120600282815481106101a7576101a76108d8565b906000526020600020016040516020016101c19190610929565b6040516020818303038152906040528051906020012014156101e65750600192915050565b806101f0816109c5565b915050610163565b50600092915050565b600061020c8261054b565b90508160028281548110610222576102226108d8565b90600052602060002001908051906020019061023f929190610645565b505050565b6000805b6002548110156101f8578260405160200161026391906108bc565b604051602081830303815290604052805190602001206002828154811061028c5761028c6108d8565b906000526020600020016040516020016102a69190610929565b6040516020818303038152906040528051906020012014156102cb5750600192915050565b806102d5816109c5565b915050610248565b60006102e88261054b565b9050600281815481106102fd576102fd6108d8565b90600052602060002001600061031391906106c9565b5050565b600061032283610244565b90508061042e576000546001600160a01b038381169116141561039d57600280546001810182556000919091528351610382917f405787fa12a823e0f2b7631cc41b3ba8828b3321ca811111fa75cd3aa3bb5ace01906020860190610645565b5060018054906000610393836109c5565b9190505550505050565b60405162461bcd60e51b815260206004820152605560248201527f496e74656e746f2072656769737472617220636f6e20756e61206375656e746160448201527f206469666572656e746520616c2070726f706965746172696f2064656c20646560648201527473706c69656775652064656c20636f6e747261746f60581b608482015260a4015b60405180910390fd5b60405162461bcd60e51b815260206004820152602f60248201527f456c20636572746966696361646f2061636164656d69636f206469676974616c60448201526e2065737461206475706c696361646f60881b6064820152608401610425565b6060600061049b8361054b565b9050600281815481106104b0576104b06108d8565b9060005260206000200180546104c5906108ee565b80601f01602080910402602001604051908101604052809291908181526020018280546104f1906108ee565b801561053e5780601f106105135761010080835404028352916020019161053e565b820191906000526020600020905b81548152906001019060200180831161052157829003601f168201915b5050505050915050919050565b6000805b6002548110156105e1578260405160200161056a91906108bc565b6040516020818303038152906040528051906020012060028281548110610593576105936108d8565b906000526020600020016040516020016105ad9190610929565b6040516020818303038152906040528051906020012014156105cf5792915050565b806105d9816109c5565b91505061054f565b5060405162461bcd60e51b815260206004820152603260248201527f456c20636572746966696361646f2061636164656d69636f206469676974616c604482015271206e6f2066756520656e636f6e747261646f60701b6064820152608401610425565b828054610651906108ee565b90600052602060002090601f01602090048101928261067357600085556106b9565b82601f1061068c57805160ff19168380011785556106b9565b828001600101855582156106b9579182015b828111156106b957825182559160200191906001019061069e565b506106c5929150610706565b5090565b5080546106d5906108ee565b6000825580601f106106e5575050565b601f0160209004906000526020600020908101906107039190610706565b50565b5b808211156106c55760008155600101610707565b634e487b7160e01b600052604160045260246000fd5b600082601f83011261074257600080fd5b813567ffffffffffffffff8082111561075d5761075d61071b565b604051601f8301601f19908116603f011681019082821181831017156107855761078561071b565b8160405283815286602085880101111561079e57600080fd5b836020870160208301376000602085830101528094505050505092915050565b6000602082840312156107d057600080fd5b813567ffffffffffffffff8111156107e757600080fd5b6107f384828501610731565b949350505050565b6000806040838503121561080e57600080fd5b823567ffffffffffffffff81111561082557600080fd5b61083185828601610731565b92505060208301356001600160a01b038116811461084e57600080fd5b809150509250929050565b60005b8381101561087457818101518382015260200161085c565b83811115610883576000848401525b50505050565b60208152600082518060208401526108a8816040850160208701610859565b601f01601f19169190910160400192915050565b600082516108ce818460208701610859565b9190910192915050565b634e487b7160e01b600052603260045260246000fd5b600181811c9082168061090257607f821691505b6020821081141561092357634e487b7160e01b600052602260045260246000fd5b50919050565b600080835481600182811c91508083168061094557607f831692505b602080841082141561096557634e487b7160e01b86526022600452602486fd5b818015610979576001811461098a576109b7565b60ff198616895284890196506109b7565b60008a81526020902060005b868110156109af5781548b820152908501908301610996565b505084890196505b509498975050505050505050565b60006000198214156109e757634e487b7160e01b600052601160045260246000fd5b506001019056fea2646970667358221220a2dabe2b8f018ffc60729f4479fc7163e5e5b8f8dc5a729b7c13b412b079edec64736f6c634300080b0033",
  "immutableReferences": {},
  "source": "// SPDX-License-Identifier: MIT\r\npragma solidity ^0.8.11;\r\n\r\ncontract StorageCAD {\r\n    // Variables y funciones para obtener el propietario del despliegue del contrato\r\n    address public owner;\r\n    modifier restricted() {\r\n        if (msg.sender == owner) _;\r\n    }\r\n\r\n    constructor() {\r\n        owner = msg.sender;\r\n    }\r\n\r\n    uint256 nextId;\r\n    // Estrucutura del certificado acadmico digital\r\n\r\n    // Arreglo de los certificados acadmicos digitales\r\n\r\n    string[] cads;\r\n\r\n    // La funcin es para crear o registrar el CAD en la Blockchain de Ethereum\r\n    // El guin bajo es un estandar de solidity para los parmetros\r\n    function registerCAD(string memory _hashCAD, address _owner) public {\r\n        // Reutilizo la funcin para saber si el dni y certificado ya fue registrado para no duplicar informacin\r\n        bool registered = findHash(_hashCAD);\r\n        if (registered == false) {\r\n            // Verificar que el propietario del despliegue del contrato sea el mismo para registrar\r\n            if (owner == _owner) {\r\n                cads.push(_hashCAD);\r\n                nextId++;\r\n            } else {\r\n                revert(\r\n                    \"Intento registrar con una cuenta diferente al propietario del despliegue del contrato\"\r\n                );\r\n            }\r\n        } else {\r\n            revert(\"El certificado academico digital esta duplicado\");\r\n        }\r\n    }\r\n\r\n    // Esta funcin busca en el arreglo de CAD por dni y hash del CAD, devuelve un booleano\r\n    // El certificado a validar debe coincidir en el dni y el hash del CAD para obtner un valor de TRUE\r\n\r\n    function validateCAD(string memory _hashCAD) public view returns (bool) {\r\n        for (uint256 i = 0; i < cads.length; i++) {\r\n            if (\r\n                keccak256(abi.encodePacked((cads[i]))) ==\r\n                keccak256(abi.encodePacked((_hashCAD)))\r\n            ) {\r\n                return true;\r\n            }\r\n        }\r\n        return false;\r\n    }\r\n\r\n    function findHash(string memory _hashCAD) public view returns (bool) {\r\n        for (uint256 i = 0; i < cads.length; i++) {\r\n            if (\r\n                keccak256(abi.encodePacked((cads[i]))) ==\r\n                keccak256(abi.encodePacked((_hashCAD)))\r\n            ) {\r\n                return true;\r\n            }\r\n        }\r\n        return false;\r\n    }\r\n\r\n    // Esta funcin busca el index de la ubicacin en el arreglo para ser usado en las funciones de read, update y delete\r\n    function findIndex(string memory _hashCAD) internal view returns (uint256) {\r\n        for (uint256 i = 0; i < cads.length; i++) {\r\n            if (\r\n                keccak256(abi.encodePacked((cads[i]))) ==\r\n                keccak256(abi.encodePacked((_hashCAD)))\r\n            ) {\r\n                return i;\r\n            }\r\n        }\r\n        // En caso de no encontrar el documento indica el siguiente mensaje\r\n        revert(\"El certificado academico digital no fue encontrado\");\r\n    }\r\n\r\n    // Obtener la informacin del CAD\r\n    function readCAD(string memory _hashCAD)\r\n        public\r\n        view\r\n        returns (string memory)\r\n    {\r\n        uint256 index = findIndex(_hashCAD);\r\n        return cads[index];\r\n    }\r\n\r\n    // Actualizar la informacin del CAD\r\n    function updateCAD(string memory _hashCAD) public {\r\n        uint256 index = findIndex(_hashCAD);\r\n        cads[index] = _hashCAD;\r\n    }\r\n\r\n    // Elimnar la informacin del CAD\r\n    // El eliminar los datos de Blockchain no es posible,lo unico que se puede hacer es resetear estos datos.\r\n    function deleteCAD(string memory _hashCAD) public {\r\n        uint256 index = findIndex(_hashCAD);\r\n        delete cads[index];\r\n    }\r\n\r\n    // Funcin para obtener el nmero de registros de CAD\r\n    function numbersCADs() public view returns (uint256) {\r\n        uint256 size = cads.length;\r\n        return size;\r\n    }\r\n}\r\n",
  "sourcePath": "C:\\Users\\JIMMY\\Pictures\\VCDA-Blockchain\\contracts\\StorageCAD.sol",
  "compiler": {
    "name": "solc",
    "version": "0.8.11+commit.d7f03943.Emscripten.clang"
  },
  "schemaVersion": "3.4.4",
  "updatedAt": "2022-10-04T16:36:06.891Z",
  "networkType": "ethereum",
  "devdoc": {
    "kind": "dev",
    "methods": {},
    "version": 1
  },
  "userdoc": {
    "kind": "user",
    "methods": {},
    "version": 1
  }
}